:0600000000008031A5287C
:100008007E14803120007F08FB0001308B1C0039F2
:100018000B1E003909188B100130911F003921007F
:10002800911F0039091C5A28200091131608F60060
:10003800F7017608B8007708B9001708F600F70145
:100048007608F700F60138087607F9003908773D91
:10005800FA007908B8007A08B9000830F60076087E
:10006800EE003A09F6003B09F700F60A0319F70A09
:1000780038087607BC003908773DBD003908BB0051
:100088003808BA0092303D027D3003193C02031C47
:10009800572864305402031855280130F6007608B2
:1000A800D407CF015A28D401CF01CF0A013020004C
:1000B800911C00392100911C0039091CA02820003E
:1000C800911099156E08031D6C28D601D60A6F2861
:1000D8000130EE02D6015D03031D7E286F08031D63
:1000E8007C28C001C00AC101C10AD201D20A7E28F7
:1000F8000130EF025203031D8A286D08031D87286B
:10010800D001D00A8A280130ED02D0010130A607BB
:100118000030A73D0130B0070030B13D0130B207D3
:100128000030B33D01302100A0070030A13D01306F
:100138002000AE070030AF3D7B082000FF007E1096
:1001480009008031A728F001F101F201F301F4015F
:10015800F501203084000030850040308731742755
:1001680080312100A001A101A201A301A401A501E0
:1001780020008731A1278031ED008731A227803107
:10018800EE008731A327EF007E1020008031CC28B5
:100198007030210099001A1ECF28103023008C00DF
:1001A8008D018F01900122008C018D018E018F013C
:1001B8002B3021008C0021308D004F308E003330E1
:1001C8008F009001C0308B0087314C2780317B3005
:1001D80020009C0091102100911420009A01F93010
:1001E8009B00873192278031210015138B100B1645
:1001F8008431D72480318631512680311A29220052
:10020800101190140D29220010150C29220010112C
:1002180090101014132922001015901010102000AF
:10022800C30128292000C301C30A28297108033AF9
:1002380003190729123A03190A29033A031903294A
:10024800313A03190F29162920004103031D3329C8
:10025800D801D80A23302100A6002608F100200082
:100268005803031D3929D8013F2986315126803189
:100278008431D72480318631CC26803120008D1EF0
:100288004829560303194D298D1A4E295603031D73
:100298004E29CF015603031D4F03031D5B2903306D
:1002A800E0000030E10087312E2780315D292200EF
:1002B8008F1320004103031D4303031D6B290130E5
:1002C800E0000030E10087313D2780316D292200B0
:1002D8000F137403031D732922008E17752922003A
:1002E8008E137403031D7C298631CC268031752931
:1002F800053020005402031C84297408031993292B
:100308008D1A8B29740803194F08031993298D1E18
:1003180033297408031D33294F08031D3329520359
:10032800031DE429033051020318E4295003031D77
:10033800E42901302100A60026082000D107D02991
:10034800A4302100A60026082000EA0012308231DD
:1003580047228031DE2984302100A60026082000AB
:10036800EA000330823147228031DE29243021001F
:10037800A60026082000EA00113082314722803189
:10038800DE2982302100A60026082000EA0023305A
:10039800823147228031DE297208033A0319AF29D6
:1003A800123A0319BA29033A0319A429313A03194D
:1003B800C529DE2927302100A60026082000ED00E7
:1003C800710872060319402AD201D1012730210091
:1003D800A60026082000ED002D2A220010119014F6
:1003E8001014A4302100A60026082000EA001230CC
:1003F8008331912380313B2A22001015901010146C
:1004080084302100A60026082000EA00033083314A
:10041800912380313B2A22001011901010142430AF
:100428002100A60026082000EA001130833191231C
:1004380080313B2A220010159010101082302100C4
:10044800A60026082000EA0023308331912380315A
:100458003B2A7108033A0319002A123A03190F2A92
:10046800033A0319F129313A03191E2A3B2A710864
:100478002100A6002608F2008631932680318731B4
:100488000027803133292000EC006A08EB006B0854
:10049800C9000830EB006B08EF00DD01DD0A86318A
:1004A800CC2682312000C201BF01812B22000C160C
:1004B800692A87318C27823120004003031D692A6D
:1004C800C201C20A87315A27823120008C1C6F2A48
:1004D800420803195D2AC20187315A278231220056
:1004E8008C172000DD01DD0A0830EB006B08EF00F7
:1004F800892A87317A27823120004003031D892AFF
:10050800BF01BF0A87315A27823120008E1C8F2AEB
:100518003F0803197D2ABF0187315A2708002200A6
:100528000C151230720603199D2A20004703031D7B
:10053800BA2A2000DE01B62A8731862782312000B8
:100548004003031DAC2AC201C20A87315A278231EF
:1005580020008C1DB22A42080319A02A0130EB00A2
:100568006B08DE0702305E02031CAC2A03307206F9
:100578000319C42A23307206031D4703031DE02A0A
:10058800DE01DC2A87318C27823120004003031DDD
:10059800D22AC201C20A87315A27823120008C1D13
:1005A800D82A42080319C62A0130EB006B08DE0777
:1005B80002305E02031CD22AC20187315A278231D7
:1005C8002000DD01DD0A22008C1708302000EB0036
:1005D8006B08EF00FB2A87317A278231200040031D
:1005E800031DFB2ABF01BF0A87315A278231200029
:1005F8008E1C012B3F080319EF2ABF0187315A27A8
:10060800080022000C15142B873186278231200020
:100618004003031D142BC201C20A87315A278231B5
:1006280020008C1C1A2B42080319082BC2018731A1
:100638005A27823122008C172000DD01DD0A08309C
:10064800EB006B08EF00342B87317A2782312000CA
:100658004003031D342BBF01BF0A87315A2782315B
:1006680020008E1C3A2B3F080319282BBF01873125
:100678005A27080022000C154D2B87318627823116
:1006880020004003031D4D2BC201C20A87315A279F
:10069800823120004208031D532B8C18412BC201C4
:1006A80087315A2782312000DD01DD0A22008C17AC
:1006B80008302000EB006B08EF00DE01792B873152
:1006C8008027823120004003031D6F2BBF01BF0A22
:1006D80087315A27823120003F08031D752B0E19D8
:1006E800632B0130EB006B08DE0702305E02031C4F
:1006F8006F2BBF0187315A27080020006C08033A86
:100708000319052B123A0319932A033A03195A2A93
:10071800313A03193E2B902B08002000EC006A08A0
:10072800EB006B08C9000830EB006B08EF00DD0137
:10073800DD0A8631CC2683312000C201BF01C72CD7
:1007480022000C16B32B87318C27833120004003FD
:10075800031DB32BC201C20A87315A2783312000F7
:100768008C1CB92B42080319A72BC20187315A27C1
:10077800833122008C172000DD01DD0A0830EB00F0
:100788006B08EF00D32B87317A2783312000400391
:10079800031DD32BBF01BF0A87315A27833120009D
:1007A8008E1CD92B3F080319C72BBF0187315A2745
:1007B800080022000C1512307206031D002C2000C0
:1007C800DE01FC2B87318627833120004003031D7F
:1007D800F22BC201C20A87315A27833120008C1DAF
:1007E800F82B42080319E62B0130EB006B08DE07F3
:1007F80002305E02031CF22B033072060319082C28
:1008080023307206031D252C2000DE01212C8731A0
:100818008C27833120004003031D172CC201C20A14
:1008280087315A27833120008C1D1D2C420803195B
:100838000B2C0130EB006B08DE0702305E02031C54
:10084800172C2000C20187315A2783312000DD018F
:10085800DD0A22008C1708302000EB006B08EF003F
:10086800412C87317A27833120004003031D412C16
:10087800BF01BF0A87315A27833120008E1C472CBD
:100888003F080319352CBF0187315A270800220079
:100898000C155A2C87318627833120004003031D0D
:1008A8005A2CC201C20A87315A27833120008C1C76
:1008B800602C420803194E2CC20187315A27833114
:1008C80022008C172000DD01DD0A0830EB006B08E0
:1008D800EF007A2C87317A27833120004003031DEB
:1008E8007A2CBF01BF0A87315A27833120008E1C1A
:1008F800802C3F0803196E2CBF0187315A27080046
:1009080022000C15932C8731862783312000400361
:10091800031D932CC201C20A87315A278331200054
:100928004208031D992C8C18872CC20187315A273D
:1009380083312000DD01DD0A22008C1708302000F9
:10094800EB006B08EF00DE01BF2C87318027833175
:1009580020004003031DB52CBF01BF0A87315A2769
:10096800833120003F08031DBB2C0E19A92C013030
:10097800EB006B08DE0702305E02031CB52CBF01DA
:1009880087315A27080020006C08033A03194B2CBA
:10099800123A0319DD2B033A0319A42B313A031930
:1009A800842CD62C0800F30122000C158C1720008B
:1009B800DE01C8305E020318E92C0130E00060084F
:1009C800DE07C8305E02031CE12CDE01C8305E027F
:1009D8000318F62C0130E0006008DE07C8305E021C
:1009E800031CEE2C0C080B39E0006008C5000E084B
:1009F8000739E0006008C4004508E0000330E0352E
:100A0800FF3E031D032D60354404E1006108F30037
:100A180022000C118C135D2D23302000E0006008AB
:100A2800F200C101080003302000E0006008F20075
:100A3800C101080011302000E0006008F200C10187
:100A4800080022000C162000DE01C8305E020318E0
:100A5800352D0130E0006008DE07C8305E02031C57
:100A68002D2DDE01C8305E020318422D0130E00052
:100A78006008DE07C8305E02031C3A2D0C080B39EB
:100A8800E0006008C50003304506031D502DC10174
:100A9800C10AC701C70A562DC7011230E000600815
:100AA800F200C10122000C1208002000C101C10A95
:100AB80008007308243A03191E2DA63A0319102DAD
:100AC800063A0319172D203A0319252D592D080028
:100AD800FD3021009D0070309E00FF309F00C13026
:100AE800220097000000000000000000F50104301B
:100AF80075020318B72D2000DE01C8305E02031806
:100B08008D2D0130E2006208DE07C8305E02031C4A
:100B1800852DDE01C8305E0203189A2D0130E200EF
:100B28006208DE07C8305E02031C922D21009D1466
:100B38009D189C2D1C082000E2007008203E8600AD
:100B48008701620881000130E2006208F007043082
:100B580070060319F0010130E2006208F50704305D
:100B68007502031C7F2D20002308E200E301220800
:100B7800E400E50120082107E600E701E70D640825
:100B88006607E8006508673DE90062086807A40091
:100B98006308693DA5002508E3002408E200E33660
:100BA800E20CE336E20C6208A4006308A5002508FD
:100BB800E1002408E0000800913021009D00703019
:100BC8009E00FF309F000000000000000000F501BB
:100BD800043075020318282E2000DE01C8305E029A
:100BE8000318FE2D0130E2006208DE07C8305E02FD
:100BF800031CF62DDE01C8305E0203180B2E0130EF
:100C0800E2006208DE07C8305E02031C032E2100E2
:100C18009D149D180D2E1C082000E2007008203E2F
:100C280086008701620881000130E2006208F0074F
:100C3800043070060319F0010130E2006208F5077C
:100C480004307502031CF02D20002308E200E301A4
:100C58002208E400E50120082107E600E701E70D86
:100C680064086607E8006508673DE90062086807E8
:100C7800A4006308693DA5002508E3002408E200F4
:100C8800E336E20CE336E20C6208A4006308A50030
:100C98002508E1002408E00008002000E401E40A37
:100CA8000330E2006208E3000130E0000030E100B8
:100CB80087316827863120000F083339E20062083F
:100CC800F10032307106031D6D2E1230E200620809
:100CD800F10031307106031D812E1130E2006208E7
:100CE800F100812EC3017F2EC301C30A0130E30244
:100CF8006308031D8F2EE4018F2E7108033A031930
:100D0800762E123A0319762E033A0319762E313AC3
:100D18000319762E782E6403031D0800582EBD2E65
:100D2800A4307306031D080020004708031D0800AF
:100D3800C101D201080084307306031D0800200099
:100D4800C101D201080024307306031D08002000E9
:100D5800C101D201080082307306031D080020007B
:100D6800C101D20108002000C101C10AD201D20A82
:100D780008007108033A03199F2E123A0319A72E87
:100D8800033A0319942E313A0319AF2EB72E0800EF
:100D980085316C25863120006108A9006008A8000B
:100DA8008531E025863120006108B5006008B4006F
:100DB800003029023630031928020318EA2E0030C1
:100DC80035026C30031934020318ED2EF401F40ACD
:100DD80008000030290236300319280203180800D9
:100DE80000303502C93003193402031CFE2EF40109
:100DF800F40A0800F401080020004303031D1D2F16
:100E080022001015901410140800220010159010DC
:100E1800101008002200101590101014080022006D
:100E280010119010101408002200101190141014C2
:100E3800080020004908243A0319132FA63A031979
:100E4800092F063A03190E2F203A0319182F2D2FB0
:100E580008000800200061082F02031D352F6008D4
:100E68002E02031C0800AE01AF01803022008F065D
:100E78000800200061083302031D442F6008320275
:100E8800031C0800B201B301403022008F0608009D
:100E9800103020009800F0309900970196019113C6
:100EA80021009117200018149915080087319C27F4
:100EB80087318731972722000C120C110C138C13E1
:100EC8002000DD01C00108002000A601A70161087B
:100ED8002702031D712F60082602031808006B2FD4
:100EE800640080010131890B752F003422000D0840
:100EF800E1398D008D14080022000D08E1398D00BC
:100F08000D15080022000D08E1398D008D15080027
:100F180022000D08E1398D000D16080020009A0105
:100F280091101C15080022000D08E1398D000800F9
:100F380022000D08E1398D000800273408340834F0
:020000040001F9
:04000E00C4C9FCDA8B
:10E00000AB0020001500030024000100FF00FF000A
:00000001FF
